:1000000000100020410000006F000000710000009F
:100010007300000075000000770000000000000081
:100020000000000000000000000000007900000057
:1000300000000000000000007B0000007D000000C8
:100040000F49104A104B9A4205D2086810600431DB
:1000500004329A42F9D300200C490D4A914203D24E
:10006000086004319142FBD300F014F8E8E7E7E7B9
:10007000E6E7E5E7E4E7E3E7E2E7E1E7E0E70000FA
:10008000C400000000100020041000200410002014
:100090000810002080B500AF064B1B685A00064BC5
:1000A0001A60064BF02252021A60054BC02252021F
:1000B0001A60FEE700100020041000201405005014
:0400C00004050050E3
:0400C4000300000035
:00000001FF
